:020000021000EC
:10C400006F1010081300000013000000130000005C
:10C4100013000000130000001300000013000000D0
:10C4200013000000130000001300000013000000C0
:08C4300013000000730010006E
:10C4380000C401000000000000000000000000002F
:10C4480000000000000000000000000000000000E4
:10C4580000000000000000000000000000000000D4
:10C4680000000000000000000000000000000000C4
:10C4780000000000000000000000000000000000B4
:10C4880000000000000000000000000000000000A4
:10C498000000000000000000000000000000000094
:10C4A8000000000000000000000000000000000084
:10C4B8000000000000000000000000000000000074
:10C4C8000000000000000000000000000000000064
:10C4D8000000000000000000000000000000000054
:10C4E8000000000000000000000000000000000044
:10C4F8000000000000000000000000000000000034
:10C5080000000000000000001AD401000000000034
:10C518000000000000000000000000000000000013
:10C528000000000000000000000000000000000003
:10C5380000000000000000000000000000000000F3
:10C5480000000000000000000000000000000000E3
:10C5580000000000000000000000000000000000D3
:10C5680000000000000000000000000000000000C3
:10C5780000000000000000000000000000000000B3
:10C5880000000000000000000000000000000000A3
:10C598000000000000000000000000000000000093
:10C5A8000000000000000000000000000000000083
:10C5B8000000000000000000000000000000000073
:10C5C8000000000000000000000000000000000063
:10C5D8000000000000000000000000000000000053
:10C5E8000000000000000000000000000000000043
:08C5F80000000000000000003B
:10C600000A2D2D2D2D2D2D2D2D2D2D2D2D2D2D2D7D
:10C610002D2D2D2D2D2D2D2D2D2D2D2D2D2D2D2D4A
:10C620002D2D2D2D2D2D2D2D2D2D2D2D2D2D2D2D3A
:10C630002D2D0AA1BEBDF0BAF9C2ABCCE1CABEA194
:10C64000BFBBE3B1E0D3EFD1D4B5E3C1C1B7A2B969
:10C65000E2B6FEBCABB9DC20202020202020202028
:10C660002020202020200A20202020B5DAD2BBB4B0
:10C67000CED3C3B4BFBBE3B1E0B5E3C1C1B5C4BA67
:10C68000ECC9ABB7A2B9E2B6FEBCABB9DCA3ACCC8B
:10C69000ABB0F4C1CBA3A1202020200A2020202071
:10C6A000D5E2D6BBCAC7CDF2C0EFB3A4D5F7B5DA91
:10C6B000D2BBB2BDA3ACB5ABCAC7A3ACCDF2CAC2A4
:10C6C000BFAACDB7C4D12C2020202020202020209C
:10C6D0000A20202020D3D0C1CBB5DAD2BBB2BDA373
:10C6E000ACBCE1B3D6CFC2C8A5A3ACB6A8D3D0CA60
:10C6F000D5BBF1A3A1202020202020202020202015
:10C70000202020200A2D2D2D2D2D2D2D2D2D2D2DB0
:10C710002D2D2D2D2D2D2D2D2D2D2D2D2D2D2D2D49
:10C720002D2D2D2D2D2D2D2D2D2D2D2D2D2D2D2D39
:10C730002D2D2D2D2D2D0A00797106D6A14273B015
:10C7400002301305002085450146C1221305102043
:10C75000854501465D2A1305202085450146752241
:10C760000545B7C5010093850520EF0090190945DF
:10C77000B7C5010093850520EF00B0180945EF000B
:10C780007044A14273A0023017050000130585E72D
:10C79000EF10004C979FFE1F938FCF90850F37EFC0
:10C7A000E400130F0F1CE3EBEFFF979FFE1F938F27
:10C7B0006F8F014F23A0EF019796FE1F9386C68EC1
:10C7C0008C4285058CC21795FE1F1305E585EF1079
:10C7D00020481795FE1F1305E5841796FE1F1306C4
:10C7E000A68C0C42EF10C0469793FE1F9383038CD8
:10C7F00083AF0300014F639CEF03130500208145C5
:10C800002D241305102081450D241305202081457A
:10C81000292C1796FE1F13066689854E2320D60104
:10C820001795FE1F13059581EF1080426DA8054FE7
:10C830006398EF03130500208545C52A13051020D2
:10C840008545E5221796FE1F13064686894E23204E
:10C85000D6011785FE1F1305857FEF10603F61A08D
:10C86000094F6398EF031305002081457D2A1305C6
:10C87000202085455D2A1796FE1F130626838D4EC0
:10C880002320D6011785FE1F1305C57DEF10403C00
:10C8900099A80D4F6398EF03130500208545712279
:10C8A00013051020814551221796FE1F130606809E
:10C8B0008D4E2320D6011785FE1F1305157CEF1022
:10C8C000203915A013052020854585221786FE1FD7
:10C8D0001306C67D814E2320D6011785FE1F130542
:10C8E000257BEF10E036814755BDB250456182800F
:10C8F000411106C6935E8500137FF50F7685FA8594
:10C90000B24041017685FA858280411106C6B28621
:10C910002E86935E8500137FF50F7685FA85B71214
:10C920000240938282012A8385430903B393630003
:10C9300023A07200214763F3E500A9A8AA8213038C
:10C940000040B382620237130140130343809A927E
:10C950001DC6854E6304D6010546E9A01143214E4C
:10C96000338EC5413303C3038943B393630023A0CC
:10C970007200C1CA054E6385C607854665A011438E
:10C98000214E338EC5413303C3038143B393630008
:10C9900023A07200AA8213030040B38262023713FD
:10C9A0000140130303809A9205C6854E6304D601A5
:10C9B00005468DA811433303B3028943B393630043
:10C9C00023A072009DCE054E638CC601854699A8B2
:10C9D00011433303B3028143B393630023A0720076
:10C9E000AA8213030040B38262023713014013038B
:10C9F00003809A922E838543B393630023AA720027
:10CA000015A0AA8213030040B382620237130140CB
:10CA1000130303809A922E838543B393630023A864
:10CA2000720009A0B24041018280411106C62E86E3
:10CA3000935E8500137FF50F7685FA852147637332
:10CA4000EF000DA0AA8213030040B38262023713E5
:10CA50000140130343809A9239C6054E6304C6030E
:10CA600005469DA0AA8213030040B38262023713D9
:10CA70000140130303809A921DC6054E6304C6014C
:10CA8000054699A0AA8213030040B38262023713BD
:10CA90000140130303809A922E838543B39363006E
:10CAA00023AA720015A0AA8213030040B382620277
:10CAB00037130140130303809A922E838543B39367
:10CAC00063002398720009A0B240410182804111A5
:10CAD00006C6935E8500137FF50F7685FA85AA82D8
:10CAE00013030040B3826202371301401303038033
:10CAF0001693031EC300854EB39EBE00B37EDE01B7
:10CB000063810E0237130140130303801693031E43
:10CB100043018543B393B300B3E3C301232A7300F6
:10CB200005A037130140130303801693031E03016E
:10CB30008543B393B300B3E3C3012328730009A073
:10CB4000B24041018280411106C6935E8500137F89
:10CB5000F50F7686FA86B28213030040B382620232
:10CB600037130140130303801693031E8300854E81
:10CB7000B39EDE00B3FECE01814E63830E0029A07A
:10CB8000B240410105458280B240410101458280A9
:10CB90000000000000000000000000000000000095
:10CBA000011106CEA14273B0023009451783FE1F62
:10CBB0001303435083050300EF00C0792300A30053
:10CBC0000945830503003D27A14273A00230F240CE
:10CBD00005618280000000003D432A876373C30221
:10CBE0009377F700BDEFADE5937606FF3D8ABA96E1
:10CBF0000CC34CC30CC74CC74107E36BD7FE11E213
:10CC00008280B306C3408A0697020000969667802A
:10CC1000A6002307B700A306B7002306B700A305A5
:10CC2000B7002305B700A304B7002304B700A3038C
:10CC3000B7002303B700A302B7002302B700A30184
:10CC4000B7002301B700A300B7002300B70082801C
:10CC500093F5F50F93968500D58D93960501D58DA7
:10CC600061B7939627009702000096968682E78028
:10CC700086FA9680C1171D8F3E96E374C3F8A5B758
:10CC8000411102C602C4371702401C43C166D58F4A
:10CC90001CC3B71702409C4337070200F98F3EC4FC
:10CCA000B24785073EC6A24791E732479307005037
:10CCB000E311F7FEB71702409C431397E700635A4E
:10CCC000070085473EC4224785476306F7004101B8
:10CCD000828002C4CDBFB727024098431367070183
:10CCE00098C39843719B98C398431367270098C3D0
:10CCF000B7170240D843D8C3D843D8C3D843136723
:10CD00000740D8C3D843B706C1FFFD16758FD8C3F7
:10CD1000D843B7061D00558FD8C39843B706000106
:10CD2000558F98C3B71702409C4313976700E35B86
:10CD300007FEB7170240D843719BD8C3D843136787
:10CD40002700D8C3B7170240DC43B18B2147E39BD0
:10CD5000E7FEB5BF411106C62537B24041018280CA
:10CD6000411106C6B717024098431367170098C3CE
:10CD7000D843B706FFF8758FD8C39843B706F7FEB8
:10CD8000FD16758F98C39843B706FCFFFD16758F87
:10CD900098C3D843B70681FFFD16758FD8C33707F0
:10CDA0009F0098C7453FB24041018280B7270240AB
:10CDB000D847D8C79C4B93F7070899CFB7270240AD
:10CDC000B706674593863612D4C33797EFCD13075E
:10CDD000B79AD8C3D4D3D8D3B7270240DC47858BC2
:10CDE000E5FFB727024098433D9B98C3984B98CBEB
:10CDF0008280411106C622C4370408002A94220406
:10CE00007537B7270240DC47858BE5FFB72702401F
:10CE1000984B799B98CB984BB7060200558F98CBCF
:10CE2000C0CB984B1367070498CBB7270240DC4769
:10CE3000858BE5FFB72602409C4A01777D17F98F65
:10CE40009CCA0145B240224441018280411106C67C
:10CE5000B7070800BE95A205B2953686EF2060465A
:10CE6000B24041018280411106C6EF208045B240A8
:10CE70004101828001476371B702B7070800AA9792
:10CE8000A20793162700B6979443FD576398F600C0
:10CE9000050742074183C5B7054582800145828069
:10CEA000B7070800AA97A207BE95372702401C4B78
:10CEB0004165C98F1CCBB7270240DC47858BE5FF56
:10CEC000B7270240DC47898BE5FF014721A0110706
:10CED00042074183637CC7023385E6008347050030
:10CEE000034815002208B3E707010348250042085C
:10CEF000B3E70701034535006205C98F9CC1910561
:10CF0000B7270240DC47898BE5FFD1B737270240BE
:10CF10001C4BB7062000D58F1CCBB7270240DC473F
:10CF2000858BE5FFB72602409C4A41777D17F98F34
:10CF30009CCA014582802D71232E1110232C811053
:10CF4000232A911023282111232631112324411152
:10CF50002A8AAE893284B6843307B600930700105C
:10CF600063C3E7042E8993F7350081E79377360092
:10CF7000ADC7930600100146D2850A85C13D8147A1
:10CF8000139707014183637C870433872701B386A6
:10CF9000F40083C60600100232972300D7F08507FD
:10CFA00093F7F70FF1BF130600100D8E4206418272
:10CFB0005937338689004206418293060010B386B2
:10CFC0003641130606F013051A00A6964206418262
:10CFD000814542054181853719A8D93509A852856F
:10CFE000093D8A861306001081455285553D01454D
:10CFF0008320C111032481118324411103290111CC
:10D000008329C110032A811015618280411106C64F
:10D01000B70700F8AA97A183C207C18342054181DF
:10D020001397870042074183198DB2862E86931588
:10D030000501C1813E850137B7270240DC47858B5A
:10D04000E5FF0145B24041018280130101BF232663
:10D050001140E1451305F077313D21E5130600202D
:10D06000B7C50108938505400A85F53B0327C11024
:10D07000B707000883A7C7106310F70437570020CD
:10D08000B717010893870740232CF70A37F50100EB
:10D090001305453CEF00D03B8320C1401301014103
:10D0A000828037F601001306C638E1453785070848
:10D0B000130505F0A13F5DB737F501001305853A6B
:10D0C000EF0010391305401C2D331305501C153388
:10D0D000B707000883A7C7102326F1100A86930517
:10D0E000002037C50108130505400D3741BF7D15E8
:10D0F0001375F50F894763F4A70001458280054544
:10D100008280411106C622C426C2AA842E84C53755
:10D1100071CD89476384F4128D47638FF41485477A
:10D12000638BF40CFD1493972400375700201307EA
:10D1300007003E9718438357C700F976FD16FD8E0A
:10D140002316D7008357C700C207C183CD9BC207F0
:10D15000C1832316F700B747014093870780630B0D
:10D16000F7141604B7A74A0493870720B3D787029A
:10D17000B7467161B3D6860261661306066AB3F6D6
:10D18000C6029206B3D6C6029207370610004116B1
:10D19000F18FD58FC207C1832314F7008A04B757D4
:10D1A000002093870700A6979843231007009C430D
:10D1B00083D607016D771307F77F758F2398E700F4
:10D1C00003D7470142074183137757FD4207418345
:10D1D000239AE70003D7C7001367C7002396E70029
:10D1E00003D7C7008966558F2396E700B2402244D3
:10D1F000924441018280B7170240984F9166558F43
:10D2000098CF984F1367170098CF984F1367470030
:10D2100098CFB717014003A747801377F7CC23A215
:10D22000E78003A7478085669386068A558F23A2E9
:10D23000E780B7070140D843D8C3EDB5B717024020
:10D24000D84FB7060200558FD8CF984F13674700C5
:10D2500098CFB717014003A70780CD769386F63F96
:10D26000758F23A0E78003A707809566938606A0A5
:10D27000558F23A0E7807DB5B7170240D84FB7067A
:10D280000400558FD8CF984F1367870098CFB717F2
:10D29000014003A747C0CD769386F63F758F23A242
:10D2A000E7C003A747C09566938606A0558F23A2C3
:10D2B000E7C08DBD1204B7A74A0493870720B3D7F0
:10D2C0008702B72658A3B3D68602096413040471F3
:10D2D000B3F6860292061306803EB3D6C6029207C4
:10D2E000370610004116F18FD58FC207C183231472
:10D2F000F7006DB5411106C622C426C22A84AE8449
:10D30000FD3331C18146C1679387A7BB63E7D7026D
:10D310009307F4FF13972700B75700209387070060
:10D32000BA9798438357070093F7070899E3850650
:10D33000D9BFC204C18023129700C1679387A7BBDE
:10D3400063F8D7000145B2402244924441018280F3
:10D350000545D5BF411106C622C426C22A84AE8423
:10D36000793305C98146C1679387A7BB63EDD702AF
:10D370009307F4FF13972700B75700209387070000
:10D38000BA9798438357070093F7070291E78506FA
:10D39000D9BF2380040029A8035547001375F50F52
:10D3A00085472380F400C1679387A7BB63E7D70055
:10D3B000B24022449244410182802380040013053C
:10D3C000F00FFDB7411106C622C42A840D3331C1C6
:10D3D0001305F4FF0A05B757002093870700AA97A3
:10D3E00098438357C70093E707022316F700B75700
:10D3F00000209387C7003E951841935757008546F4
:10D40000B396E600938707048A0737E700E0BA97E8
:10D4100094C3B240224441018280EFF06FF8730060
:10D420002030411106C622C42E841C420547638C5D
:10D43000E7000947638EE7001C4085071CC0B24027
:10D440002244410182805C42620561858297EDB78A
:10D450001C462380A7001C4685071CC6F1BF130786
:10D460001500230005001DCE9C4199C3014505A070
:10D4700093070003A300F500054582809305000390
:10D48000B387F5402300F70005050507B28791CB68
:10D4900033C6D702B3E7D702E3C207FE9387070379
:10D4A000D5B782809C4191EF93070003A300F5005C
:10D4B00005458280938777032300F700050605075B
:10D4C000AE8781CFB3D5D7023385B602898F254584
:10D4D000E362F5FE93870703C5B7328582800111A9
:10D4E00006CE22CC26CA4AC84EC62A84AE84B28949
:10D4F0003689635994004A86CE8513050003153793
:10D500000504C5BFF2406244D2444249B2490561B4
:10D510008280011106CE22CC26CA4AC84EC62A8471
:10D52000AE84B2893689635994004A86CE85130544
:10D530000002C53D0504C5BFF2406244D2444249E1
:10D54000B24905618280411106C69375F50F054504
:10D550005533B24041018280197186DEA2DCA6DA21
:10D56000CAD8CED6D2D4D6D2DAD02A89AE843284E2
:10D5700082C682C882CA82CC82CE1306C00481458C
:10D580000A85EFF06FE583294900032909004A85E0
:10D59000CE85EF10B035AA8AEF10103B2A86AE86F2
:10D5A0004A85CE85EF10E0402A8A2E8B31E8B7F706
:10D5B000010003A6074C83A6474C5285DA85EF008D
:10D5C000D073EF10D03E2A89AE890144B7F701002D
:10D5D00003A6074D83A6474D5285DA85EF00906676
:10D5E00063520504B7F7010003A6874C83A6C74C16
:10D5F0005285DA85EF0070702A8A2E8B0504F9B700
:10D600001309F4FF19C8B7F7010003A6874C83A6D6
:10D61000C74CEF00906E4A84E5B7EF1050392A8965
:10D62000AE8965B7130BF4FF63970A0493070003F1
:10D630002380F400854A138A1A00B3875401130724
:10D64000E0022380E700B3673901B5E7269A930724
:10D6500000032300FA00138A2A00D29423800400D6
:10D660005285F6506654D6544659B659265A965A9B
:10D67000065B096182808147638D0A02A94633F601
:10D68000DA02139727008C102E972326C7FEB3DAF1
:10D69000DA028507D5B7FD17139727009410369740
:10D6A0000327C7FEB3865401130707032380E60050
:10D6B000850AF5F349B70144B36739019DC7294687
:10D6C00081464A85CE85EF00101F930A14000A0494
:10D6D0009C103E942320A4FA294681464A85CE8593
:10D6E0003D2D2A89AE895684C1BF63090B02931769
:10D6F00024009810BA9723A007FA7D1B0504F5B7FC
:10D700007D14931724009810BA9783A707FA3387DC
:10D710004401938707032300F700050A75F035BF1E
:10D72000597186D6A2D4A6D2CAD0CECED2CCD6CA71
:10D73000DAC8DEC6E2C4E6C2EAC02A892E84B2890B
:10D7400002CE02D002D202D402D602D802DA02DC21
:10D75000230E010293070003230EF10002CC854A39
:10D76000014A11A84A862C08354565394A862C0895
:10D7700029454539050403050400630C054A930750
:10D780005002630CF504A947E30EF5FC4A862C0809
:10D790004939CDB793E414003284A9E51306140087
:10D7A00083071400811793F6F70F4147636AD70286
:10D7B0009397260037F701001307473FBA979C431A
:10D7C000828793E42400C9BF93E44400F1B793E453
:10D7D0008400D9B793E40401C1B78144814575BF82
:10D7E000854565BF014B814B11A0AE8B63930B0246
:10D7F0009306140083071400938707FD2547E3660B
:10D80000F7FE13172B005A97131B17003E9B368405
:10D81000F1BF13071400830614009307E002638A24
:10D82000F604014C814A1307140083071400930681
:10D830008006638BD7009306C0066384D7069306E1
:10D84000C0046383D706228713041700030517005B
:10D85000930785FA93F6F70F130700026364D73C2A
:10D860009397260037F7010013078743BA979C4325
:10D870008287014C814511A0DE8595E113061700D2
:10D8800083071700938707FDA546E3E7F6FE131706
:10D890002C006297131C17003E9C3287F9BF3A8414
:10D8A00059B7136A1A004DB7136A2A0071BF938BD8
:10D8B000490083A709003ECAA94605464C086808E6
:10D8C000793EAA8C7C08338CA700D24763CA070034
:10D8D00093F724009DC7930C15009309B00229A06B
:10D8E000930C15009309D00293F784008DCB6393BA
:10D8F0000902CA863008DA856685D536DA8CDE8973
:10D9000059A493F94400E38109FE930C150093098F
:10D910000002D9BF4A862C084E852136D9BF93F71D
:10D92000140081CBE38D09FC4A862C084E85D53C3A
:10D93000F9B7CA863008DA856685E13EE38109FCDD
:10D940004A862C084E85F13C5DBF938BC90083ACA1
:10D95000490083A9890066C44EC601468146668592
:10D96000CE85EF00302E634C050093F72400B9E715
:10D9700093F94400638D09009309000209A8B707D1
:10D980000080B3C7370166C43EC69309D002639ACC
:10D990000A02631E0A0219466C082800753E2A8C8A
:10D9A00093F78400A1C3639A0902CA863008DA8516
:10D9B000628535365A8C9309C101B9A89309B00222
:10D9C000F9B762866C082800413E2A8CD1BF1946FF
:10D9D0006C08280051362A8CE1B74A862C084E85FF
:10D9E0008934E1B793F7140081CBE38609FC4A86BA
:10D9F0002C084E853D34C1B7CA863008DA85628569
:10DA0000093EE38A09FA4A862C084E85193C65B717
:10DA100085094A862C0831340385090075F9858803
:10DA200099E0DE8981BBCA863008DA856285D53403
:10DA3000DE8989B3138D490083A709003EC2C14620
:10DA400001464C006808213CAA8C7C08338CA70056
:10DA500093F98400638F090293F90401639F09001D
:10DA6000CA863008DA8566859D3CDA8C93F7040116
:10DA700099C3638C0904EA8939A24A862C081305E4
:10DA8000000345324A862C0813058007593ADE897F
:10DA9000C1BF93F71400F9FB93F9040163840900F3
:10DAA000930C2500CA863008DA8566859D34E38F9D
:10DAB00009FA4A862C0813050003A5324A862C0869
:10DAC00013058007B93ADE8955B74A862C08130535
:10DAD0000003813A4A862C0813058007EFF07F94F3
:10DAE000890C51BF938B490083A709003EC2A14610
:10DAF00001464C006808A532AA8CDE897C08338C6C
:10DB0000970193F78400A5E793F71400ADEFCA8659
:10DB10003008DA856685F53ABDA0938B490083A766
:10DB200009003EC2894601464C006808EFF03F9369
:10DB3000AA8CDE89E1B7938B490083A709003EC216
:10DB4000C14601464C006808EFF07F91AA8CDE893F
:10DB500075B7938B490083A709003EC2A9460146C9
:10DB60004C006808EFF0BF8FAA8CDE8941BFCA86DF
:10DB70003008DA856685A532DA8C31A07D1C4A86AC
:10DB80002C08EFF01F8A03050C006DF98588E383EC
:10DB900004BECA863008DA856685A53AE1BE93845C
:10DBA00049004A862C0803850900EFF09F87A68963
:10DBB000D1B6938B490083A90900638A09064E8573
:10DBC000EF10807BAA8C858899CC63090C020385B1
:10DBD000090005C9E35D80FF7D1C85094A862C0884
:10DBE000EFF03F84EDB7CA863008DA85EFF07F9218
:10DBF000E9BF85094A862C08EFF0BF82038509003A
:10DC00006DF999E0DE89BDB6CA863008DA85668589
:10DC1000EFF03F90DE89B9BE83A70900624798C341
:10DC2000910989BE4A862C08EFF0AFFFA1B6DE89C4
:10DC300091B66245B650265496540659F649664A3E
:10DC4000D64A464BB64B264C964C064D65618280B3
:10DC5000397106CE2ED232D436D63AD83EDA42DCEC
:10DC600046DE85473EC0B7D70100938767543EC262
:10DC7000501032C6AA850A856534F240216182803F
:10DC8000739012349781FE1F938141C317210020A6
:10DC90001301413717250000130545989775FE1F9E
:10DCA000938545361776FE1F1306464163FAC50075
:10DCB0008322050023A0550011059105E3EAC5FE66
:10DCC0001775FE1F1305853F9775FE1F9385453F0A
:10DCD0006377B500232005001105E36DB5FEFD4215
:10DCE000739002BCFD4273904280B7620000938241
:10DCF000820873A0023097E2FFFF9382227493E2BE
:10DD0000320073905230EFF0AF85EFF00FB497F21E
:10DD1000FFFF9382A2A27390123473002030B68763
:10DD2000B2882A832E88639D061463F9C50A416769
:10DD3000636EE61AB70700016363F63493568601F3
:10DD4000E147171700001307677D36970347070061
:10DD5000BA97130700021D8F19CB3398E500B3570C
:10DD6000F500B318E60033E807013313E50013D6D6
:10DD700008013355C80293960801C18293570301E5
:10DD80003377C802B385A60242073368F700637A87
:10DD9000B80046989307F5FF636418016367B830CD
:10DDA0003E853308B8403357C8024203135303017A
:10DDB0003378C802B386E602420833686800637BA2
:10DDC000D80046989307F7FF6365180179176363D6
:10DDD000D8003E874205598D8145828001E605477E
:10DDE000B358C702416763EAE80EB707000163EC66
:10DDF000F82893D68801E147171700001307077228
:10DE0000369783460700BE9693070002958FE5EB91
:10DE1000939E08013387154113DF080193DE0E013D
:10DE20008545935703013355E7033377E703B3067B
:10DE3000D5034207D98F63FAD700C6971307F5FFBA
:10DE400063E4170163E6D7263A85958F33D7E70356
:10DE5000420313530301B3F7E703B30ED703C2071B
:10DE6000B3E7670063FBD701C6979306F7FF63E547
:10DE70001701791763E3D70136874205598D8280F0
:10DE800063E2D504C16763E2F604B707000163E407
:10DE9000F61E13D78601614897170000938707681D
:10DEA000BA9703C70700130E00024297330EEE40E5
:10DEB000631A0E0C63EDB61C3335C500134515000F
:10DEC000814582808145014582809307F00F63F38D
:10DED000D71C13D786002148C1B71307F00FC68699
:10DEE000E37C17F193D68800A14739B71307F00FE9
:10DEF000B286E378C7E493568600A14799B5B398F4
:10DF0000F80033D6D50013DF0801335EE6033397FC
:10DF1000F500B356D500558F939E080193DE0E0190
:10DF20003313F50093550701B376E603B387CE03A9
:10DF3000C206CD8E63FBF600C6961306FEFF63E4B1
:10DF4000161763F2F616791EC6969D8E33D6E60333
:10DF500093170701C183B3F6E6033385CE02139707
:10DF600006015D8F637BA70046979307F6FF636802
:10DF700017136376A7127916469793150E01098F2A
:10DF8000D18D45B5B357E600B396C601DD8E33D3C8
:10DF9000E50013DF0601B357E303939E060193DE0A
:10DFA0000E013398C5013357E500336807019358D4
:10DFB00008013316C6013373E303B385FE0242033F
:10DFC000B368130163FBB800B6981387F7FF63EAE1
:10DFD000D80C63F8B80CF917B698B388B84033D7A3
:10DFE000E803420813580801B3F8E8033383EE024C
:10DFF000C208B3E5080163FB6500B6951308F7FF97
:10E0000063EDD50863FB65087917B695C207416FC4
:10E01000D98F1307FFFFB3F6E70093D80701718F7D
:10E020004182B38EE602B3856540B386C60213D83B
:10E030000E013387E802BA96C2963386C80263F3AC
:10E04000E6007A9693D80601469663E2C502638598
:10E05000C5003E858145828041677D17F98EC206E5
:10E06000B3FEEE003315C501F696E374D5FE1385B5
:10E07000F7FF8145828013D70601414831BD935691
:10E080000601C1477DB993D60801C147B5B38145A3
:10E09000054582803687014801B5428785BF3E86A7
:10E0A000E9BDBA871DBF328E4DB579154698D5B9F1
:10E0B0007915C69759BBB68732882A832E872E8E4C
:10E0C0006393061463F1C50A41676378E61A130780
:10E0D000F00FB2866375C70093568600A1471717E5
:10E0E00000001307A7433697034707009308000271
:10E0F000BA97B388F840638C0800B3951501B357FD
:10E10000F5003318160133EEB7003313150113561B
:10E110000801B357CE02131508014181935603013C
:10E12000337ECE02B307F502420E3367DE0063781A
:10E13000F7004297636507016373F70042971D8FED
:10E14000B356C70293170301C1833377C702330560
:10E15000D5024207D98F63ECA7083385A740335512
:10E1600015018145828001E605473358C7024167A2
:10E17000636CE80EB70700016365F82A93568801BF
:10E18000E147171700001307673936970347070061
:10E1900093080002BA97B388F840639A081E131ECA
:10E1A0000801B385054113560801135E0E0113578C
:10E1B0000301B3D6C502B3F5C502B386C603C205D3
:10E1C0004D8F6377D700429763640701636AD72650
:10E1D000158F3355C7024203135303013377C70228
:10E1E0003305C5034207B367670063F8A700C2970A
:10E1F00063E5070163F3A700C2973385A740335552
:10E200001501814582802A88E3EED5F4C16763E574
:10E21000F604B707000163E2F62013D38601E14854
:10E22000971700009387872F9A9703CE0700130351
:10E230000002469E3303C3416319030463E4B6003E
:10E240006369C5003308C540958D333705013387B1
:10E25000E5404285BA8582809307F00F63FBD71CA7
:10E2600013D38600A1486DBF1307F00FC286E37A6F
:10E2700007F193568800A14729B7B70700016366E5
:10E28000F61A93568601E14799BDB357C601B39676
:10E290006600DD8EB3D8C50113D70601B3DEE802F0
:10E2A000139F0601B357C501135F0F01B3956500B6
:10E2B000DD8D13D805013316660033156500B3F8FC
:10E2C000E802B307DF03C20833E80801637BF80004
:10E2D00036989388FEFF6363D8166371F816F91EAB
:10E2E00036983308F840B357E802C205C181337845
:10E2F000E802330FFF02131708014D8F637BE7011C
:10E3000036979385F7FF6369D7126377E713F91799
:10E310003697C20EC162B3EEFE001388F2FFB3F867
:10E320000E019355060193DE0E0133780601B38F7B
:10E3300008033307E74133880E0393D70F01B388EF
:10E34000B802C298C697B38EBE0263F30701969EC9
:10E3500041687D1893D50701B3F70701C207B3FFE2
:10E360000F01F695FE976362B70A630EB708B3070D
:10E37000F5403335F500B305B740898D339EC501AF
:10E3800033D567003365AE00B3D56500828033189E
:10E39000180133D7F50013560801B356C702131EF0
:10E3A0000801B357F500135E0E01B3951501DD8D1D
:10E3B00093DE0501331315013377C702B307DE027D
:10E3C00093160701B3E6D60163F8F600C29663E53B
:10E3D000060163F3F600C2969D8E33D7C60293976B
:10E3E0000501C183B3F6C6023307EE029395060119
:10E3F000DD8D63F8E500C29563E5050163F3E50093
:10E40000C295998D6DB3E374F5F63386C740B3B703
:10E41000C700B6979D8DB28799BF13D30601C14837
:10E4200001B593560801C147A9BB93560601C147E0
:10E430007DB136838148EDB3AE87E1BDC68E55B55B
:10E44000429779B313D74501B7071000FD1713D8CA
:10E4500046011377F77F9308F07F33FEB700AA8E4B
:10E46000F58FFD81328F1378F87FFD82630E1703DD
:10E47000630D180129E3B368AE00631F08005D8EC9
:10E4800001EE0143638C080421A8B3E8C7000943E7
:10E49000639608046DD305A0638408046385D502E0
:10E4A00005438DCD7D531DA8B368AE000943639726
:10E4B0000802630AE802631408005D8E75D2E391D6
:10E4C000D5FEE34FE8FC63490701E3EBC7FD630FAB
:10E4D000FE0001436374FE00F1D505431A85828076
:10E4E000EDFE7D53E5BF5D8E79DACDBFE36ADFFBDC
:10E4F0000143E3F5EEFFF5F175B739714AD813D949
:10E5000045014ED652D456D29399C50006DE22DC80
:10E5100026DA5AD05ECE1379F97F2A8A93D9C900B8
:10E5200093DAF501630D090E9307F07F6306F9187E
:10E530001354D5018E09B36934013704800033E4E4
:10E54000890093143500130919C08149814B13D7F1
:10E550004601139AC6001377F77FB285135ACA0093
:10E5600013DBF601630B07109307F07F6303F704D7
:10E570009357D6010E0A33EA4701130717C0B707AE
:10E580008000B367FA00931536003A99814833C783
:10E590006A01BD463A851308190063E83617171655
:10E5A00000001306A6F38A09B29983A60900B29661
:10E5B0008286B367CA001309F97F6399071293E94A
:10E5C000290081458948E1B701479307F07F370467
:10E5D000080081443204D20731807E075D8C598C5B
:10E5E000A285F250625426854259D254B259225A19
:10E5F000925A025BF24B216182805A853E84AE843E
:10E60000C68B8947638DFB0E8D47E38FFBFA8547E9
:10E610002A87639EFB3881470144814465BF33E408
:10E62000A90061C036C632C4638C092A4E85EF004A
:10E63000F0412246B246AA87130755FF75449384DA
:10E6400087FF198CB399990033548A0033643401DD
:10E65000B3149A0013D746011309D0C0139AC60009
:10E660001377F77F3309F9408149814BB285135AFB
:10E67000CA0013DBF601E31907EEB367CA00B1C79E
:10E68000630F0A22528532C4EF00503C22462A878B
:10E69000930655FFF547930587FF958F331ABA0008
:10E6A000B357F600B3E74701B315B6003309E940A5
:10E6B0001309D9C08148E1BD33E4A90001ECA149A7
:10E6C00081441309F07F894B59B593E919008145BD
:10E6D000854875BD4E84AA84B1491309F07F8D4BDE
:10E6E000BDB5914981440149854B95B593E9390000
:10E6F000D2878D4869BD89475685E397FBF02A8705
:10E700009307F07F01448144F1B5C16E1386FEFF8B
:10E7100093D6040113DE0501F18CF18D3386950249
:10E720003383B6029358060133059E021A95AA98C0
:10E73000B382C60363F36800F692C16F1383FFFFD1
:10E7400033F5670093D30701B3F76800C20733734B
:10E7500066003E933306950293D80801B387A6025C
:10E76000135F0601B3849302BE94FA94B38E7602CB
:10E7700063F3F400FE9E416A9307FAFF935F04017E
:10E78000B376F400B3F9F4007D8EC1803384D502F2
:10E79000C209338FD401B299CE98B307DE02935EDB
:10E7A0000401B385BF02AE97BE9E330EFE0363F332
:10E7B000BE00529EC1679385F7FF33F6BE006D8C95
:10E7C0004206229693DE0E01B305D502769E33856E
:10E7D000AF0213D40501B386D302AA96A296B38FD3
:10E7E000F30363F3A600BE9F41657D15B3F7A60052
:10E7F000C2076D8DAA97B3855800B3B93501FA9752
:10E80000B2953384370133B6C500B30EC4013385E6
:10E81000CE0033343401B3B7E701C18F33BECE012C
:10E8200013D406013336C5003E943366CE0093946C
:10E83000950032947E94B3E46400260493567501E7
:10E84000B3349000DD8193179500CD8C558CDD8C11
:10E850009317740063DB070093D714008588931621
:10E86000F401DD8CD58C058042899307F93F63590B
:10E87000F00893F6740081CE93F6F4001146638895
:10E88000C60093864400B3B496002694B6849316CB
:10E89000740063D80600B70700FFFD177D8C93074F
:10E8A00009409306E07F63CFF60E93D634009314AD
:10E8B000D4012604D58C318093F7F77F21BB3285B4
:10E8C00032C4EF00B01893065501F1471307050253
:10E8D0002246E3D1D7DC6115B317A6008145F9B311
:10E8E000EF00D01613075501F145930705022246A4
:10E8F000B246E3D5E5D461153314AA00814499BB2F
:10E9000085469D8EB1E71309E941B3972401B3D43D
:10E91000D40033192401B337F000B3649900DD8CBF
:10E9200093F77400B356D40081CF93F7F4001146E7
:10E930006388C70093874400B3B49700A696BE844B
:10E940009397860063D8070485470144814459B1F1
:10E9500013068003E341D6CC7D46E356D6FA05562E
:10E96000B307F640930500023356F4006387B60000
:10E970001309E943B3172401DD8CB3349000D18C23
:10E9800093F67400014499CA93F7F4001146814646
:10E99000E392C7FA139496003180F6068D80D58CE9
:10E9A00081470DB99307F07F0144814425B1428925
:10E9B0006DBD370710007D1701113373B70093D871
:10E9C0004601758F935ED60122CC26CA0E0393D4DE
:10E9D00045019357D5010E0706CE4AC84EC693F897
:10E9E000F87F130EF07F33E7EE0093F4F47F13D437
:10E9F000F50133E36700131F3500FD82931E3600D7
:10EA0000638FC81793C61600B38514416304D412EC
:10EA10006350B018638A081AB70780005D8F638F50
:10EA2000C4579307800363C2B734FD4763C3B74835
:10EA3000930700028D8FB3D9BE003318F700B39E41
:10EA4000FE00336838013357B700B339D00133685B
:10EA500038013303E340B3090F41B3373F013306B5
:10EA6000F3409317860063D20724370980007D198D
:10EA700033792601630E092C4A85C92F130785FFB8
:10EA800093070002998FB3D7F9003316E900D18FAD
:10EA9000B399E9006344972A058F13061700FD46D2
:10EAA00063C4C63A13070002118FB3D6C900339866
:10EAB000E9003397E700558F33380001B369070148
:10EAC00033D6C700814493F7790081CF93F6F900DC
:10EAD00091476388F6009386490033B83601429621
:10EAE000B6899317860063D6071C13871400930713
:10EAF000F07F05886306F720B70780FFFD17F18FC9
:10EB00001398D70193D93900A60733683801B18328
:10EB10001377F77F9396C7005207B1827E04D98E90
:10EB2000C18EF2406244D2444249B2494285B68520
:10EB3000056182806356B00A638A0812B7078000B5
:10EB40005D8F6386C42D9307800363C7B718FD47A5
:10EB500063D1B73C138805FE93070002B359070140
:10EB6000638AF50093070004B385B7403317B700F5
:10EB7000B3EEEE003338D0013368380195A2B367A5
:10EB8000D7019385148099E393C61600630AD404D1
:10EB9000D1E19387140093F7E77F6398071EB3676B
:10EBA000E3013368D701639204166381073C631560
:10EBB0000842131835009316D3011358380033E870
:10EBC00006019357330019A2B367D7016384071A6C
:10EBD0009387F5FF638A073A638BC523BE8591B59A
:10EBE0006398051C9386140093F7E67FC1EFB36723
:10EBF000E301639F0434638C0744B367D7016393D5
:10EC000007460E051318D3010D813368A8009357EA
:10EC100033006DA8B385984063960420B367E30181
:10EC2000638C07309387F5FF638807401305F07FF7
:10EC30006382A520BE859307800363C1B72AFD4781
:10EC400063C7B73C930700028D8F3318F300335628
:10EC5000BF00B317FF003368C800B339F000335367
:10EC6000B3003368380133076740ADACB367D701F1
:10EC7000638207109387F5FF638E071E638FC52D90
:10EC8000BE85D1B59307F07F638BF606FA9E33B647
:10EC9000EE01B307E300B2971398F70193DE1E006D
:10ECA000B369D80113D61700B68493F77900E39FB0
:10ECB00007E09317D60113D839003368F800A6850A
:10ECC000935736001307F07F6380E506B207B183E0
:10ECD00013F7F57F05883DBD3367D7013338E00072
:10ECE000B309E801B3B7E9013386670093178600DB
:10ECF000E3DD07FA85049307F07F639BF41805882A
:10ED00001307F07F8147014831B563900710630016
:10ED1000083C131836009317D7011358380033688E
:10ED2000F800368493573700B367F800E9DB0144F5
:10ED30001307F07FB70708000148E9BB370680FFDB
:10ED40007D167D8E93F77900998CE39107D895B75E
:10ED50004E85ED2913078501FD47E3D3E7D213065E
:10ED600085FFB397C900814935B33368D70133387C
:10ED70000001D5B1131835009317D301135838008B
:10ED80003368F8009357330035BFB309DF413309C7
:10ED9000E34033363F013309C9409317890063CA02
:10EDA000072033E82901E31708CC8147014439BF24
:10EDB000B385984063810414B70680009307F07F01
:10EDC0003363D3006381F8209307800363CCB722B9
:10EDD000FD4763C9B72C930700028D8F3318F300EA
:10EDE000B356BF00B317FF003368D800B339F00043
:10EDF0003353B300336838011A97B309D801B3B756
:10EE0000D9013386E700C684D5B5E31208F213189A
:10EE100035009317D301135838003368F80093571F
:10EE2000330019B7370580009307F07F3363A300E1
:10EE3000E393F8E00E061318D7010D823368C8007B
:10EE4000935737003684CDB505179306000233D7A4
:10EE5000E700630AD600930600043386C640339663
:10EE6000C700B3E9C90033383001B369E80001468F
:10EE7000814425BDB309DF01B307E30033BFE901D6
:10EE80003386E701931786008544E3D007E289447F
:10EE9000B70780FFFD17F18F13D7190013F819007A
:10EEA000336807019399F701B3E9090113D61700F5
:10EEB00019B9138805FE93070002B3590701638A45
:10EEC000F50093070004B385B7403317B700B3EEDE
:10EED000EE003338D00133683801B5BE3363E30147
:10EEE00033386000B3890E41B3B73E013306F740B3
:10EEF000C6843684BDB6B367E3016387071893877A
:10EF0000F5FF638C071C9306F07F638ED50ABE85E0
:10EF100065BD930700028D8FB3D9BE003318F7008B
:10EF2000B39EFE00336838013357B700B339D001C0
:10EF3000336838013A936DB3131836009317D7012D
:10EF40001358380033E807013684935737009DBBC8
:10EF5000BDCB3367D701E31C07DC0E051318D301C3
:10EF60000D813368A800935733007DBBE30F08E29F
:10EF7000131836009317D701135838003368F80078
:10EF800036849357370099B3B309DF41B307E340A1
:10EF9000333F3F013386E7418544E1B41318350020
:10EFA0009316D3011358380033E806019357330002
:10EFB000A5BBB389EE413306674033B93E0133093F
:10EFC0002641368445BC0E061318D7010D823368DE
:10EFD000C8009357370089BBB309DF41B307E3404B
:10EFE00033363F013386C7409317860063D7070A3D
:10EFF000B389EE41B3076740B3BE3E013386D741C4
:10F000003684D1B43363E30133386000FDB3138831
:10F0100005FE93070002B3590301638AF5009307C5
:10F020000004B385B7403313B300336F6F00333838
:10F03000E001336838017DB5B389EE41B30767401D
:10F04000B3BE3E013386D7413684854419BC1318BC
:10F0500036009317D701135838003368F8009357D8
:10F060003700ADB1B309DF01B307E30033BFE901F6
:10F070003386E70193178600E3D907C2B70780FFFD
:10F08000FD177D8E854415B10E061318D7010D822C
:10F090003368C8009357370035B133E8C900E30639
:10F0A00008D021B1138805FE93070002B35903016C
:10F0B000638AF50093070004B385B7403313B300A8
:10F0C000336F6F003338E001336838013DB30144DA
:10F0D0001307F07FB707080035BCB309DF01B3079A
:10F0E000E300B3BED9013386D70169BB93D745018D
:10F0F000B70610001387F6FF93F7F77F1306E03F7C
:10F100002A886D8F0145FD816354F60099C1828084
:10F1100082801306E0417D55E34BF6FE1305304334
:10F120001D8D7D46558F634AA6009387D7BE331742
:10F13000F7003355A800598D828013053041B3077D
:10F14000F5403355F700828015CD411122C406C623
:10F150002A84ED289306E041898EA94793F6F67F2D
:10F1600063DCA7025515B317A400B207B1830147AA
:10F17000B2402244B207D206B183D58F3A85BE850C
:10F180004101828081478146B207D206B18301479F
:10F19000D58F3A85BE8582802D47098FB357E4000D
:10F1A000B207130755013317E400B183D1B793D7E2
:10F1B0004501B70610001387F6FF93F7F77F130694
:10F1C000E03F6D8FFD816353F60081C501458145A8
:10F1D00082801306E0436355F6007D55FD5582801D
:10F1E00013062043B365D700635CF6001387D7BAD4
:10F1F0009387D7BC63400704B315E50001458280BF
:10F20000930630439D8E7D47635BD70013073041E3
:10F21000B307F740B3D7F50081453E858280138759
:10F22000D7BE3397E5003355D500B367A700B3D5F4
:10F23000D500E5B7FD46135715009D8E3357D7000F
:10F24000B395F500D98D3315F5008280C167637ED3
:10F25000F5029307F00F1307000263ECA70097076E
:10F2600000009387A72BAA9703C507003305A74083
:10F2700082802181970700009387472AAA9703C5B8
:10F28000070061473305A7408280B7070001636E1E
:10F29000F50061819707000093874728AA9703C567
:10F2A000070021473305A74082804181970700006E
:10F2B0009387C726AA9703C5070041473305A74090
:10F2C0008280B3C7A5008D8B3307C50081E78D47CA
:10F2D00063EEC700AA876370E50A83C60500850749
:10F2E0008505A38FD7FEE3EAE7FE8280937635009B
:10F2F000AA8791CA83C6050085078505A38FD7FE17
:10F3000093F63700FDB79376C7FF138606FE63F0CA
:10F31000C70683A3050083A2450083AF850003AF22
:10F32000C50083AE050103AE450103A3850183A893
:10F33000C5019385450223A0770003A8C5FF23A23A
:10F34000570023A4F70123A6E70123A8D70123AA86
:10F35000C70123AC670023AE17019387470223AE92
:10F3600007FF75B790419107910523AEC7FEE3EB08
:10F37000D7FEE3E4E7F68280AA87850703C7F7FF95
:10F380006DFF3385A7407D15828000003031323318
:10F3900034353637383941424344454632303230CD
:10F3A00030373136000000002020A1BE5573657251
:10F3B000CCE1CABEA1BFA3BAD6D0B6CFBCCCB3D025
:10F3C0000D0A00002020A1BE55736572CCE1CABEB3
:10F3D000A1BFA3BABDABBDF8C8EB55736572B5C488
:10F3E0006D61696EBAAFCAFDD6B4D0D02E2E2E0D87
:10F3F0000A0A0000C8D70100E0D70100E0D70100E9
:10F40000D4D70100E0D70100E0D70100E0D7010028
:10F41000E0D70100E0D70100E0D70100E0D701000C
:10F42000C2D70100E0D7010094D70100E0D7010066
:10F43000E0D70100CED7010034DA010024DC01005E
:10F4400024DC010024DC010024DC010024DC0100B8
:10F4500024DC010024DC010024DC010024DC0100A8
:10F460001ADB01009EDB0100AED8010024DC0100A4
:10F470004AD9010024DC010024DC0100AED80100DF
:10F4800024DC010024DC010024DC010024DC010078
:10F4900018DC0100E4DA010036DB010024DC0100A5
:10F4A00024DC0100B2DB010024DC010052DB01009E
:10F4B00024DC010024DC010034DA0100000000003B
:10F4C00000A0D88557347643000000000000244097
:10F4D000000000000000F03F32F2FFFF24F1FFFFC8
:10F4E00024F1FFFF22F1FFFF2AF1FFFF2AF1FFFFC6
:10F4F000F0F0FFFF22F1FFFF2AF1FFFFF0F0FFFF26
:10F500002AF1FFFF22F1FFFF1EF2FFFF1EF2FFFFB5
:10F510001EF2FFFFF0F0FFFF0001020203030303EE
:10F520000404040404040404050505050505050593
:10F530000505050505050505060606060606060673
:10F54000060606060606060606060606060606065B
:10F550000606060606060606070707070707070743
:10F56000070707070707070707070707070707072B
:10F57000070707070707070707070707070707071B
:10F58000070707070707070707070707070707070B
:10F5900007070707070707070808080808080808F3
:10F5A00008080808080808080808080808080808DB
:10F5B00008080808080808080808080808080808CB
:10F5C00008080808080808080808080808080808BB
:10F5D00008080808080808080808080808080808AB
:10F5E000080808080808080808080808080808089B
:10F5F000080808080808080808080808080808088B
:10F60000080808080808080808080808080808087A
:08F610000808080808080808B2
:10F618000038014000440040004800403500000028
:10F628003600000037000000000000000000000065
:10F6380025640A00C9C1CBB8B4CECAFD6D4C696750
:10F648006874436F756E743D004C494748545F4178
:10F658004C4C3A4F46462D2D0A004C494748545FBA
:10F6680052454426475245454E3A4F4E2D2D0A00E5
:10F678004C494748545F475245454E26424C5545EC
:10F688003A4F4E2D2D0A004C494748545F424C557D
:10F6980045265245443A4F4E2D2D0A004C494748BD
:10F6A800545F414C4C3A4F4E2D2D0A00000000008B
:10F6B8000000000000000000000000000000000042
:08F6C80000000000000000003A
:040000031000C40025
:00000001FF
